:020000040800F2
:10000000E046002075020008FF0C0008F70C00080D
:10001000FB0C0008E5090008E714000800000000D8
:10002000000000000000000000000000DD010008EA
:10003000C50B00080000000021020008051100089F
:100040008F0200088F0200088F0200088F0200084C
:100050008F0200088F0200088F0200088F0200083C
:100060008F0200088F0200088F0200088F0200082C
:100070008F0200088F0200088F0200088F0200081C
:100080008F0200088F0200088F0200088F0200080C
:100090008F0200088F0200088F0200088F020008FC
:1000A0008F0200088F0200088F0200088F020008EC
:1000B0008F0200088F0200088F0200088F020008DC
:1000C0008F0200088F0200088F0200088F020008CC
:1000D0008F020008751100088F020008FD1100084A
:1000E0008F0200088F0200088F02000800F002F85B
:1000F00000F065F80AA090E8000C82448344AAF15D
:100100000107DA4501D100F05AF8AFF2090EBAE85A
:100110000F0013F0010F18BFFB1A43F0010318473B
:1001200020590000405900000A444FF0000C10F81C
:10013000013B13F0070408BF10F8014B1D1108BF65
:1001400010F8015B641E05D010F8016B641E01F805
:10015000016BF9D113F0080F1EBF10F8014BAD1C55
:100160000C1B09D16D1E58BF01F801CBFAD505E073
:1001700014F8016B01F8016B6D1EF9D59142D6D3CD
:10018000704700000023002400250026103A28BFF5
:1001900078C1FBD8520728BF30C148BF0B607047F9
:1001A000642900F0BF80752900F0BC80732900F03D
:1001B000B982002070471FB51FBD10B510BD00F0FB
:1001C0000EFB1146FFF7F7FF02F054FA00F02CFB8C
:1001D00003B4FFF7F2FF03BC01F0BCFA224B19682D
:1001E0000868B0E8F00F80F30988BFF36F8F4FF015
:1001F000000080F311884EF00D0E704700000000E3
:1002000006480068006880F3088862B661B6BFF3EC
:100210004F8FBFF36F8F00DF00BF00BF08ED00E01E
:10022000EFF30980BFF36F8F0F4B1A6820E9F00FCF
:10023000106008B54FF0500080F31188BFF34F8F66
:10024000BFF36F8F04F042F94FF0000080F3118884
:10025000BDE8084019680868B0E8F00F80F3098825
:10026000BFF36F8F704700BFC8000020EFF3058019
:10027000704700000948804709480047FEE7FEE74D
:10028000FEE7FEE7FEE7FEE7FEE7FEE7FEE7FEE746
:1002900004480549054A064B70470000151100083F
:1002A000ED000008E0400020E0460020E042002091
:1002B000E0420020704700000FB4044910B503AAC3
:1002C000029800F033FA10BC5DF814FBAC0000207B
:1002D00070B50C460546012A05D02878800600D561
:1002E000EA69002302E0012305E05B1C934202D28D
:1002F000E05C0028F9D1A869E618C01AA861286A4C
:10030000184428622846AFF3008004E0D5E90121B3
:1003100014F8010B9047B442F8D32846AFF300809D
:1003200070BD00002DE9F0410646002410687529D3
:10033000314616A510D0AFF30080002802DA404203
:1003400013A507E031688A0701D512A502E0490725
:1003500004D511A5012401E0AFF3008000210A2299
:1003600006F1240709E0B0FBF2FCB0FBF2F302FB5C
:100370001C00303078541846491C0028F3D123461D
:100380002A463046BDE8F04100F049B900000000BF
:100390002D0000002B000000200000002DE9F0419E
:1003A0000F460546002028622846E968884770B352
:1003B000252805D0D5E901219047286A401CF2E79D
:1003C000E9682846002688476C2804460AD0682C2D
:1003D00008D04C2C35D06A2C31D0742C31D07A2CEA
:1003E0002FD016E0E968064628468847B042044602
:1003F00008D16C2E23D04FF480662846E9688847E0
:10040000044606E06C2E03D04FF4807601E01EE037
:100410004026E4B1A4F14100192802D8203446F462
:1004200000663A46214628462E60FFF7B9FE60B1C5
:10043000012808D0FF1D27F007070837B4E78026FA
:10044000DBE70026D9E73F1DAEE72046B2E7286A82
:10045000BDE8F0810EB5054614460E4613A000F027
:1004600082F9284600F07FF916A000F07CF93046AA
:1004700000F079F915A000F076F900218DF80B1045
:100480000A210DF10A008DF80A1008E094FBF1F240
:1004900001FB124294FBF1F4303200F8012D002CE4
:1004A000F4DC00F060F900F053F900002A2A2A2059
:1004B000617373657274696F6E206661696C6564DF
:1004C0003A2000002C2066696C6520002C206C69A5
:1004D0006E652000032A40F2308010F0030C00F01B
:1004E000158011F8013BBCF1020F624498BF11F86E
:1004F00001CB00F8013B38BF11F8013BA2F1040227
:1005000098BF00F801CB38BF00F8013B11F003039E
:1005100000F02580083AC0F0088051F8043B083A02
:1005200051F804CBA0E80810F5E7121D5CBF51F8A4
:10053000043B40F8043BAFF30080D20724BF11F81E
:10054000013B11F801CB48BF11F8012B24BF00F883
:10055000013B00F801CB48BF00F8012B704710B5F4
:10056000203AC0F00B80B1E81850203AA0E81850AB
:10057000B1E81850A0E81850BFF4F5AF5FEA027C6C
:1005800024BFB1E81850A0E8185044BF18C918C0DB
:10059000BDE810405FEA827C24BF51F8043B40F87C
:1005A000043B08BF7047D20728BF31F8023B48BF61
:1005B00011F8012B28BF20F8023B48BF00F8012B9F
:1005C000704702F0FF0343EA032242EA024200F0CE
:1005D00002B84FF000020429C0F0128010F0030CA2
:1005E00000F0CD80CCF1040CBCF1020F18BF00F874
:1005F000012BA8BF20F8022BA1EB0C0100F0BFB823
:100600005FEAC17C24BF00F8012B00F8012B48BF32
:1006100000F8012B704770477047704770472DE90D
:10062000F0470D4699469246044600F124080168B9
:10063000880604D5E06921F01001216000E0012066
:10064000A84201DD471B00E00027A1697A1902EBEF
:100650000900081AA0612078C00602D42046AFF332
:100660000080002608E0D4E901211AF8060090472E
:10067000206A401C761C20624E45F4DB2078C006C0
:100680000AD52046AFF3008006E0D4E901213020EE
:100690009047206A401C2062381EA7F10107F4DC55
:1006A00007E0D4E9012118F805009047206A401CB2
:1006B0002062281EA5F10105F3DC2046AFF300807F
:1006C0002078000602D50220BDE8F0870120FBE774
:1006D00001694A1C02610878704700B58FB0CDE906
:1006E00001310021059105497944CDE903101146F6
:1006F0006846FFF753FE0FB000BD0000E5FFFFFFA7
:1007000010B5436913B1AFF3008001E0FFF7E0FDDE
:10071000012010BD127800F124010A7000224A70F5
:100720000122EDE711684FF0FF32E9E7074B70B5A2
:100730000D467B44FFF7D1FF0446284600F044F8FD
:1007400010B14FF0FF3070BD204670BD2B1D000072
:1007500010B5002000F03CF8FFF72FFDBDE8104079
:10076000012000F0F7BF10B5044602E0641C00F061
:10077000F3FF20780028F9D110BD4FF0000200B53A
:10078000134694469646203922BFA0E80C50A0E8B4
:100790000C50B1F12001BFF4F7AF090728BFA0E862
:1007A0000C5048BF0CC05DF804EB890028BF40F82E
:1007B000042B08BF704748BF20F8022B11F0804F70
:1007C00018BF00F8012B7047007B00F080007047D5
:1007D00010B500F037F8BDE8104000F02EB87546AF
:1007E00000F048F8AE4605006946534620F0070081
:1007F000854618B020B5FFF74BFDBDE820404FF00F
:1008000000064FF000074FF000084FF0000B21F0FA
:100810000701AC46ACE8C009ACE8C009ACE8C009C7
:10082000ACE8C0098D46704710B50446AFF30080B0
:100830002046BDE81040FFF7CBBC002801D000F0F7
:1008400089BF704710B5002102A000F017F8012001
:1008500010BD0000534947414252543A2041626E54
:100860006F726D616C207465726D696E6174696F11
:100870006E000000004870478040002070B50546BB
:100880000C460A2000E06D1C00F066FF35B12878A8
:100890000028F8D102E0641C00F05EFF14B120785B
:1008A0000028F8D1BDE870400A2000F055BF0000D4
:1008B00030B587B0054638480068012865D137480B
:1008C00000883749086000203349086035480078BF
:1008D000012803D033480078002856D132A0FFF712
:1008E000EBFC2F480078801EC1B22E4800F04BFF71
:1008F00000909DF800102A480068401E294A105CAC
:10090000814242D19DF8011025480068801E105C8C
:1009100081423AD1002408E02249E01C095C274AC0
:10092000A01C22F81010601CC4B2182CF4DB1B4869
:10093000018823A0FFF7C0FC1A48C07800061949B7
:10094000097940EA01401749497940EA01201549EF
:100950008979084301901CA00199FFF7ADFC11486B
:10096000C07900060F49097A40EA01400D49497AE9
:1009700040EA01200B49897A0843029016A00299A7
:10098000FFF79AFC002005490880182201A9284693
:10099000FFF7E5FD07B030BD3C000020500000200F
:1009A0004C000020881300200D0AC8B7C8CF20498A
:1009B0004420D5FDC8B70D0A000000003C400020CF
:1009C0000D0A25640D0A00000D0AB5E7D1B9D6B5A8
:1009D0003A256C750D0A0000B5E7C1F73A256C752C
:1009E0000D0A000000BFFEE700B585B00D4B0FCB30
:1009F0008DE80F006946012000F058FF401C08B93F
:100A000000BFFEE700BF04A90F2000F04FFF401C0D
:100A100008B900BFFEE79DF810000028F3D005B02C
:100A200000BD0000305A000808B50121082000F080
:100A3000D9F904208DF80300C001ADF800000320AF
:100A40008DF802006946024800F0BDF808BD0000BC
:100A5000000C014008B50121082000F0C3F9102066
:100A60008DF803004001ADF8000003208DF802006E
:100A70006946024800F0A7F808BD0000000C0140DC
:100A80002DE9F84F00F07EF84FF40071264800F091
:100A900030F94FF40071244800F020F9C8BB00BFC2
:100AA0004FF40071204800F019F90028F8D000BF79
:100AB0004FF400711C4800F011F90128F8D000F043
:100AC00037F8044600F034F8054600F031F80646E1
:100AD00000F02EF8074600F02BF800904FF400715C
:100AE000114800F004F9372000F0BEFF4FF4007108
:100AF0000D4800F0FEF860193044C1190098814299
:100B000007D104F0FF0805F0FF0906F0FF0A07F01F
:100B1000FF0B0648C0F80080C0F80490C0F808A099
:100B2000C0F80CB0BDE8F88F000C0140D8130020CD
:100B300070B5002500BF1FE000BF4FF400711048E2
:100B400000F0CCF80028F8D01E2000F08DFF6006E1
:100B5000040E4FF400710A4800F0C0F8012801D1DA
:100B600044F0010400BF4FF40071054800F0B6F8EE
:100B70000128F8D0681CC5B2082DDDDB204670BD09
:100B8000000C014010B5FFF765FF4FF400710C48F1
:100B900000F0AFF81E2000F067FF4FF40071084826
:100BA00000F0A5F8142000F03FFF4FF40071044856
:100BB00000F09FF81E2000F057FFFFF735FF10BD33
:100BC000000C014070472DE9F04102460025002647
:100BD000002000230024002791F803C00CF00F052B
:100BE00091F803C00CF0100CBCF1000F03D091F889
:100BF00002C04CEA050591F800C0BCF1000F31D0ED
:100C0000146800202BE04FF0010C0CFA00F3B1F84F
:100C100000C00CEA03069E4220D183004FF00F0C67
:100C20000CFA03F7BC4305FA03FC4CEA040491F800
:100C300003C0BCF1280F06D14FF0010C0CFA00FCE8
:100C4000C2F814C00AE091F803C0BCF1480F05D106
:100C50004FF0010C0CFA00FCC2F810C0401C082830
:100C6000D1D31460B1F800C0BCF1FF0F34DD54687B
:100C700000202EE000F1080C4FF0010808FA0CF3F8
:100C8000B1F800C00CEA03069E4221D183004FF068
:100C90000F0C0CFA03F7BC4305FA03FC4CEA0404FE
:100CA00091F803C0BCF1280F05D100F1080C08FA37
:100CB0000CF8C2F8148091F803C0BCF1480F07D1BA
:100CC00000F1080C4FF0010808FA0CF8C2F8108087
:100CD000401C0828CED35460BDE8F08102460020B5
:100CE00093680B400BB1012000E000207047416188
:100CF00070470161704700BFFEE700BFFEE7704725
:100D000070B5002100230F22C47804B3154C246869
:100D100004F4E064C4F5E064210AC1F10403CA40AC
:100D2000447804FA03F184781440214309010E4CFD
:100D30000678A155047804F01F050124AC4005781D
:100D40006D11AD0005F1E025C5F8004109E004781A
:100D500004F01F050124AC40044D0678761145F8D7
:100D6000264070BD0CED00E000E400E080E100E012
:100D700002490143024A1160704700000000FA0571
:100D80000CED00E01CB50649002000F067FD0449A9
:100D9000012000F063FD6946082000F087FD1CBDBE
:100DA0009100002029B1064AD2690243044BDA615E
:100DB00004E0034AD2698243014BDA6170470000C4
:100DC0000010024029B1064A12690243044B1A611D
:100DD00004E0034A12698243014B1A617047000024
:100DE0000010024029B1064A92690243044B9A61FD
:100DF00004E0034A92698243014B9A617047000004
:100E00000010024029B1064AD2680243044BDA605E
:100E100004E0034AD2688243014BDA607047000065
:100E20000010024030B500210022002400232D4D87
:100E30006D6805F00C0121B1042905D0082923D1E2
:100E400005E0294D056022E0274D05601FE0254D96
:100E50006D6805F47012234D6D6805F48034022529
:100E600005EB92421CB9214D554305600BE01D4D29
:100E70006D6805F400351DB11C4D5543056002E059
:100E8000194D5543056002E0174D056000BF00BFD6
:100E9000144D6D6805F0F0010909154D6B5C05688E
:100EA000DD4045600F4D6D6805F4E061090A104DA5
:100EB0006B5C4568DD4085600A4D6D6805F46051E6
:100EC000C90A0B4D6B5C4568DD40C560054D6D681A
:100ED00005F44041890B074D6B5CC568B5FBF3F524
:100EE000056130BD0010024000127A0000093D008B
:100EF000B2000020C200002010B54FF4805102481B
:100F0000FFF7F7FE10BD0000000C014010B54FF4D4
:100F100080510248FFF7EBFE10BD0000000C0140BD
:100F200021B1028842F04002028004E002884FF6BC
:100F3000BF731A4002807047012080F3108800BF01
:100F40007047002080F3108800BF7047CA430281B9
:100F5000704710B50022028802F441520B884C8879
:100F600023438C882343CC8823430C8923434C8917
:100F700023438C892343CC8923431A430280838BE8
:100F80004FF2FF74234083830B8A038210BD00005D
:100F900000BF0B48008800F002000028F9D0FF20B5
:100FA0000749091D088000BF0548008800F00100BE
:100FB0000028F9D00248001D0088C0B27047000028
:100FC0000838004000BF0A49098801F002010029E1
:100FD000F9D00749091D088000BF0549098801F0BB
:100FE00001010029F9D00249091D09887047000054
:100FF0000838004010B500F001F810BD0CB5002015
:10100000019000903348006840F480303149086016
:1010100000BF3048006800F4003000900198401C88
:101020000190009818B90198B0F5A06FF1D1294846
:10103000006800F4003010B10120009001E00020B1
:1010400000900098012843D12348006840F0100028
:10105000214908600846006820F00300086008463F
:10106000006840F0020008601A484068194948606A
:101070000846406848600846406840F48060486020
:101080000846406820F47C1048600846406840F4F8
:10109000E81048600846006840F08070086000BFB3
:1010A0000C48006800F000700028F9D0094840683A
:1010B00020F00300074948600846406840F00200FD
:1010C000486000BF0348406800F00C000828F9D1D0
:1010D0000CBD00000010024000200240042808D18E
:1010E0004FF0E021096941F004014FF0E022116165
:1010F00007E04FF0E021096921F004014FF0E02200
:101100001161704710B504F0EBF9012801D003F02C
:101110006DFE10BD10B51348006840F00100114984
:10112000086008464068104908400E494860084673
:1011300000680E4908400B4908600846006820F422
:10114000802008600846406820F4FE0048604FF4A4
:101150001F008860FFF74EFF4FF0006004490860F1
:1011600010BD0000001002400000FFF8FFFFF6FE77
:1011700008ED00E010B540F225511D4800F0EFF8F1
:1011800010B31B4800F0A6F9C4B21A48008800F456
:101190000040C8B91748008800F4804060B10A2CAC
:1011A00003D000201349088020E01248008840F452
:1011B00000401049088019E00D2C06D10D48008828
:1011C00040F480400B49088010E00A480088C0F3D2
:1011D0000D0009490C5407480088401C0549088047
:1011E00008460088C72801DD0020088010BD0000E7
:1011F00000380140B0000020F813002010B540F284
:101200002551174800F0ABF8A8B140F22551144819
:1012100000F02EF8124800F05DF9C4B211480088C1
:10122000C82808DA10480F49098844540D48008836
:10123000401C0C49088040F22441094800F08FF816
:10124000012807D001200949086040F224410448E0
:1012500000F00EF8024800880148001D008810BD0B
:101260000048004050000020881300203C0000206F
:1012700010B50022002340F66A14A14200D100BF3D
:101280000A1201249440A3B2DC43048010BD21B1B2
:10129000828942F40052828104E082894DF6FF7314
:1012A0001A4082817047000010B5044620488442ED
:1012B00009D101218803FFF7A5FD00214FF48040EB
:1012C000FFF7A0FD32E01B48844209D10121480408
:1012D000FFF778FD00214FF40030FFF773FD25E0A4
:1012E0001548844209D101218804FFF76BFD0021D4
:1012F0004FF48020FFF766FD18E01048844209D1C2
:101300000121C804FFF75EFD00214FF40020FFF724
:1013100059FD0BE00A48844208D101210805FFF776
:1013200051FD00214FF48010FFF74CFD10BD00006F
:10133000003801400044004000480040004C00409C
:101340000050004002460020B1F5007F00D100BFF0
:1013500013880B400BB1012000E00020704770B5EE
:101360000246002400230025002040F66A16B14200
:1013700000D100BFC1F3421501F01F03012606FA98
:1013800003F3012D02D19689334006E0022D02D1EC
:10139000168A334001E0968A33400C12012606FA81
:1013A00004F41688344013B10CB1012000E0002091
:1013B00070BDF0B50346002400260025002040F64D
:1013C0006A17B94200D100BF1846C1F3421401F0B8
:1013D0001F06012707FA06F5012C01D10C3004E0A5
:1013E000022C01D1103000E014301AB107682F43ED
:1013F000076002E00768AF430760F0BD2DE9F047E2
:1014000086B005460E460024A24600BFA14600272E
:10141000B08900B100BF2F462C8A4CF6FF70044003
:10142000F08804432C82AC894EF6F3100440B08857
:1014300031890843718908430443AC81AC8A4FF673
:10144000FF400440B0890443AC8201A8FFF7EAFCE6
:101450001F48874202D1DDF810A001E0DDF80CA0A2
:10146000A88900F4004040B10AEBCA0000EB0A1062
:1014700031684900B0FBF1F807E00AEBCA0000EB65
:101480000A1031688900B0FBF1F86420B8FBF0F075
:1014900004012009642101FB1089A88900F400409F
:1014A00040B1322000EBC900B0FBF1F000F00700C2
:1014B000044308E0322000EB09106421B0FBF1F096
:1014C00000F00F0004432C8106B0BDE8F087000057
:1014D0000038014001468888C0F308007047C1F316
:1014E00008028280704700BFFEE7000010B500F0E0
:1014F0001DF80849084802F01BF80849084802F09E
:101500002BF80849084802F03BF8FFF76DFAFFF79F
:1015100039FC10BD430F0008390F0008F90E000810
:101520000D0F0008C50F0008910F000810B54FF40B
:1015300080710848FFF7DBFB022000F095FA4FF4BA
:1015400080710448FFF7D5FB4FF47A7000F06CFA15
:1015500010BD0000000C014038B504461A49C868A7
:10156000804719494869804700BF1748406A10B151
:101570001548806A70B91448016AC4F30740884767
:101580001148016AC4F307208847E0B20E4A116A85
:1015900088470DE0200C8DF80000200A8DF801002E
:1015A000E0B28DF8020008480321826A684690473D
:1015B0000549C8698047054603498869804702494B
:1015C00008698047284638BD60000020F8B5044609
:1015D0000E4617461F49C86880471E49486980471C
:1015E00000BF1C48406A10B11A48806AC0B9194847
:1015F000016AC4F3074088471648016AC4F307200C
:101600008847E0B2134A116A8847002505E011496E
:10161000C86980477055681C85B2BD42F7DB12E08F
:10162000200C8DF80000200A8DF80100E0B28DF842
:10163000020008480321826A6846904705483946F7
:10164000426A3046904703498869804701490869E2
:101650008047F8BD6000002038B504460D461A49A1
:10166000C868804718494869804744F00404164810
:10167000806A90B91448016AC4F307408847124849
:10168000016AC4F307208847E0B20F4A116A88470D
:101690000D48016A284688470FE0200C8DF80000AD
:1016A000200A8DF80100E0B28DF802008DF8035099
:1016B00005480421826A6846904703498869804743
:1016C00001490869804738BD60000020F8B504462C
:1016D0000E4617461E49C86880471D49486980471D
:1016E00044F004041A48806AC0B91948016AC4F376
:1016F000074088471648016AC4F307208847E0B2CC
:10170000134A116A8847002505E0705D104A116A86
:101710008847681C85B2BD42F7DB12E0200C8DF8CB
:101720000000200A8DF80100E0B28DF802000848A0
:101730000321826A6846904705483946826A3046E6
:101740009047034988698047014908698047F8BD87
:101750006000002000BF704700BF704710B5024610
:10176000514000230BE001F001044908C1F30E01D0
:1017700014B14AF20100414089B2581CC3B2082B8F
:10178000F1DB084610BD2DE9F04305460E464FF645
:10179000FF744FF0000907E028782146FFF7DEFFCD
:1017A00004466D1C09F10109B145F5D3E7B2C4F354
:1017B000072848EA07242046BDE8F08310B5044610
:1017C00000BF082C02DD4FF0FF3010BD00BFA100AC
:1017D000491C4FF4807202EBC1001021FFF73CFF5F
:1017E00000BFA100491C4FF4807202EBC100FFF75B
:1017F000B3FE0028F5D1A100491C4FF4007202EBA2
:10180000C1001F21FFF728FF0120A0400F490988D0
:1018100081430E4801800120A0400D490988814381
:101820000B48018000200B4921F814000A49085593
:1018300000BFA100491C4FF4407202EBC100FFF74A
:101840008BFE0028F5D10120BFE7000054000020E6
:1018500056000020E81300205800002070B505460F
:101860000C46062D1CD2DFE805F003070B0F1317FB
:10187000204603F009F816E0204602F067FF12E068
:10188000207803F02DF870BD02F08EFF20700AE082
:10189000204603F038F806E0204602F08AFF02E016
:1018A0004FF0FF30EFE700BF0020ECE72DE9FC41EF
:1018B00006460C460025002000900190102E7CD298
:1018C000DFE806F0080B1A161E2226323F54575B3B
:1018D0005F60647003F02DF872E01CB10094009812
:1018E00008300190DDE9000102F077FFBDE8FC81DE
:1018F000208802F0E0FE63E002F0FFFE20805FE05F
:10190000208802F0B2FF5BE002F00CFF208057E07D
:10191000208801124FF49850FFF79EFE21784FF473
:10192000A050FFF799FE4BE04FF4A050FFF714FED4
:1019300007464FF49850FFF70FFE07EB002020807A
:101940003EE02148807820701F48C07860701E48B3
:101950000079A0701C484079E0701B4880792071A4
:101960001948C07960710020A07129E003F071F876
:1019700026E0204603F087F822E0204603F012F824
:101980001EE01DE0207803F0AAF8AFE703F052F85C
:10199000C5B268B2401C18B94FF0FF30A6E70CE0A2
:1019A00025700DE003F03AF8C5B268B2401C10B9DA
:1019B0004FF0FF309AE7257002E04FF0FF3095E7D7
:1019C00000BF002092E700006000002010B5042056
:1019D000FFF784FB104800681049B0FBF1F0104994
:1019E00008700D4800680D49B0FBF1F44FF47A70AF
:1019F000444301200B4908804FF0E020006940F08B
:101A000002004FF0E021086108464461006940F09F
:101A10000100086110BD00001C00002040420F00C2
:101A2000A8000020AA00002070B5044603F058FD6D
:101A3000012810D00B480088844206D3094800884A
:101A4000B4FBF0F5284602F047FB06480088B4FBDB
:101A5000F0F100FB11444FF47A7104FB01F000F047
:101A600003F870BDAA00002070B5034600224FF0B5
:101A7000E02675690D4E367803FB06F44FF0E0263C
:101A8000B16910E04FF0E026B06988420BD088427F
:101A900002D20E1A324402E02E1A0E44324401469B
:101AA000A24200D300E0EDE700BF70BDA800002017
:101AB00016E0FEF7E5FF0B4881680BA0FEF7FCFB84
:101AC000084801680BA0FEF7F7FB064800890C499F
:101AD00008800448008848804FF4FA7002F0FCFA4D
:101AE000E7E70000D8130020CEC2B6C8A3BA256429
:101AF0000D0A0000CAAAB6C8A3BA25640D0A0000E0
:101B00003C40002010B5002406480078012806D18A
:101B100005480068804700200249087000E006245C
:101B2000204610BD42010020480100202DE9F05F51
:101B300006460D464FF0000B2888052848D17078DE
:101B40004FEA0029B07840EA090909F101001FFABB
:101B500080F9F078040230790443012C35DBB4F5C8
:101B6000FA6F32DA374600202880012007F8010B8F
:101B70002888401C288004F0070040B12046E11767
:101B800004EB5171C910491C01F0FF0805E0204623
:101B9000E11704EB5171C1F3C70807F8018B2888DE
:101BA000401C2880002322464946384600F0EAFAC5
:101BB0008246BAF1000F04D0504601F003FB834681
:101BC00008E028884044288004E04FF0030B01E03F
:101BD0004FF0030B5846BDE8F09F2DE9F05F064635
:101BE0000D464FF0000B2888052847D170784FEA42
:101BF0000029B07840EA090909F101001FFA80F9CB
:101C0000F078040230790443012C34DBB4F5FA6F28
:101C100031DA374600202880022007F8010B288897
:101C2000401C288004F0070040B12046E11704EB77
:101C30005171C910491C01F0FF0805E02046E11769
:101C400004EB5171C1F3C70807F8018B2888401CC9
:101C5000288022464946384600F0E0FA8246BAF12A
:101C6000000F04D0504601F0ADFA834608E0288802
:101C70004044288004E04FF0030B01E04FF0030BD9
:101C80005846BDE8F09F2DE9F04705460C464FF059
:101C9000000A2088052837D168784FEA0028A878FC
:101CA00040EA080808F101001FFA80F8E878060207
:101CB0002E79012E25DB7D2E23DC2F46002020806F
:101CC000032007F8010B2088401C20807006000EBE
:101CD00007F8010B2088401C208000233246414633
:101CE000384600F0D1FA8146B9F1000F04D04846D9
:101CF00001F068FA824609E0208800EB4600208067
:101D000004E04FF0030A01E04FF0030A5046BDE83B
:101D1000F0872DE9F04705460C464FF0000A208871
:101D2000052837D168784FEA0028A87840EA0808E3
:101D300008F101001FFA80F8E878060228790643C6
:101D4000012E24DB7D2E22DA2F4600202080042065
:101D500007F8010B2088401C20807006000E07F851
:101D6000010B2088401C208032464146384600F056
:101D7000C5FA8146B9F1000F04D0484601F022FAB5
:101D8000824609E0208800EB4600208004E04FF006
:101D9000030A01E04FF0030A5046BDE8F0872DE941
:101DA000FC5F04460D460020009028880A285DDB71
:101DB00060784FEA002AA07840EA0A0A0AF1010096
:101DC0001FFA80FAE07806022079064360794FEA2C
:101DD000002BA07940EA0B0B0BF101001FFA80FBEE
:101DE000E0790702207A0743607A0190012E3BDBFD
:101DF0007D2E39DC012F37DB792F35DC7900019816
:101E0000814231D101233A46594604F10A0000F0DB
:101E10003BFA8146B9F1000F1ED1A0460020288070
:101E2000172008F8010B2888401C28807006000E37
:101E300008F8010B2888401C2880002332465146B0
:101E4000404600F021FA8146B9F1000F04D12888FC
:101E5000022101FB06002880B9F1000F06D0484698
:101E600001F0B0F9009001E0032000900098BDE877
:101E7000FC9F000070B505460C46064802880649DE
:101E8000681CFEF727FB03480088401C20800020C8
:101E900070BD00003C0100200C4000202DE9F843FB
:101EA00004460F464FF000083888052829D160788D
:101EB0000502A0780543681C85B22079F0B9E07866
:101EC000FF2801D0E078C8B900208DF80100E07843
:101ED000FF2803D101208DF8000002E000208DF8DA
:101EE000000001231A462946684600F04BF90646D1
:101EF0004EB1304601F066F9804604E04FF0030829
:101F000001E04FF003084046BDE8F8832DE9F041B9
:101F100004460F464FF000083888052812D1607833
:101F20000502A0780543681C85B201231A4629469C
:101F3000E01C00F0A9F9064636B1304601F042F93E
:101F4000804601E04FF003084046BDE8F0812DE9EE
:101F5000F05F05460E464FF0000B3088052839DD4E
:101F600068780702A8780743781C87B2E8780402EB
:101F70002879044395F805A004F0070040B12046F5
:101F8000E11704EB5171C910491C01F0FF0805E08D
:101F90002046E11704EB5171C1F3C708012C16DB91
:101FA000B4F5F66F13DCD04511D101232246394632
:101FB000A81D00F0E7F88146B9F1000F04D04846AB
:101FC00001F000F9834607E00520308004E04FF07F
:101FD000030B01E04FF0030B5846BDE8F09F2DE9DD
:101FE000F04704460E464FF0000A3088062828DBEA
:101FF00060780702A0780743781C87B2E078050272
:102000002079054394F80590012D17DB782D15DC18
:102010006806000E484511D101232A463946A01D05
:1020200000F032F98046B8F1000F04D0404601F0CC
:10203000C9F8824607E00520308004E04FF0030A2B
:1020400001E04FF0030A5046BDE8F08738B500259F
:102050004148007808B1062038BD684602F072FD9C
:10206000012877D19DF8000030B1012805D0022861
:1020700018D003286DD16BE06BE0384A38493948F5
:10208000394B1B68984705465DB936480078374993
:102090000978884202D03348007810B9022002F053
:1020A0006BFD56E02E480068007831490870012029
:1020B00030490870002417E02F4810F8340000B9A8
:1020C00014E02D4810F834002949097888420AD1D3
:1020D000294800EBC4002149426821480068904724
:1020E0002449087002E0641C102CE5DB00BF1D4889
:1020F000007858B31F480078C8B1002017490880FD
:102100001B48007840F08001144802880088401C79
:10211000124B1880124800688154164802781846FD
:1021200001880088401C18800D48006842541348FC
:102130000078012800D100BF0848028808480168DB
:102140000A4800780E4B1B689847054601E001E0FD
:1021500000BF00BF00207FE742010020F201002005
:10216000EC010020F001002050010020400100207F
:10217000F1010020F40100206C0100204101002049
:10218000440100202DE9F04705460E469046994649
:102190004FF0000A0FFA88F430B2012836DB06EB64
:1021A0000800022832DC701E07B2B9F1000F03D01C
:1021B000B9F1010F29D115E011E0082C01DD08204B
:1021C00000E02046C2B2B9B2134802F057FD05F84C
:1021D000010BA4F1080004B207F1080007B2002CBB
:1021E000EBDC12E00EE015F8013B082C01DD0820C5
:1021F00000E02046C2B2B9B2074802F055FDA4F192
:10220000080004B2002CEEDC00BF01E04FF0010A30
:102210005046BDE8F0870000F7010020F0B5034606
:1022200000201646002401EB020CACF10107012945
:1022300026DB01EB020CBCF1110F21DC002512E0C2
:10224000A6F1010C1FFA8CF67F1EDFF838C01CF8CF
:1022500007C00CFA06FC4CEA040C1FFA8CF405F1DA
:10226000010C0CF0FF059542EADB082A01DC1C702A
:1022700007E003F8014B4FEA142C03F801CB00E010
:102280000120F0BD70400020F0B504460D4600204E
:10229000012D2FDBAE181B2E2CDC691E13B1012B78
:1022A00027D111E00DE0144E36F81160361204F813
:1022B000016B114E16F8116004F8016B491C561E93
:1022C000B2B2002AEFDC14E010E014F8017B3E0209
:1022D000094F27F8116014F8016B37F811703E436D
:1022E000054F27F81160491C561EB2B2002AECDCDB
:1022F00000BF00E00120F0BD3C40002030B50346A7
:102300000020012917DB8D18092D14DC4D1EACB2FD
:102310000EE00A4D35F814502D1203F8015B074DFD
:1023200015F8145003F8015B651CACB2551EAAB237
:10233000002AEEDC00E0012030BD00002C4000202F
:1023400070B504460025204602F032FC00B9032592
:10235000284670BD70B5044600252046FFF7F0FF03
:10236000051E03D00120114908701CE002F0FCFB9F
:1023700008B9032517E00E480E4908600E480F49BA
:1023800008600F480F4908600F4810490860002096
:102390000F490860FF200F49087002200E4908709D
:1023A000012002490870284670BD0000420100204B
:1023B0005524000848010020572400084C01002043
:1023C000DD230008500100202524000844010020DE
:1023D0005401002040010020410100202DE9FC4172
:1023E00004460D4616464FF00508694601A802F05E
:1023F000CFFB90B10198807807020198C07807431D
:102400006FB90198C01D2860BDF80000C01F308062
:102410004FF00008FF20207001E04FF00508404613
:10242000BDE8FC812DE9F04781460E4614460027A1
:10243000F51FE01D1FFA80F8601C000A2871601C5F
:1024400068714146284602F003FC00B9052738466A
:10245000BDE8F087704710B501F0C8FC10BD000062
:1024600000BF054A128802F04002002AF9D0C2B229
:10247000014B1B1D1A8070470038014070B504469F
:102480000025002600BFA100491C4FF4185202EBA2
:10249000C100FFF761F80646A100491C4FF418522D
:1024A00002EBC10101F58070FFF756F800EB062042
:1024B00086B2AEB1A100491C4FF4185202EBC10024
:1024C000FFF74AF80546A100491C4FF4185202EBE9
:1024D000C10101F58070FFF73FF800EB052085B2E0
:1024E000B542D0D1284670BD70B5044600250026FF
:1024F00000BFA100491C4FF4005202EBC100FFF7DE
:102500002BF80646A100491C4FF4005202EBC10112
:1025100001F58070FFF720F800EB062086B2AEB11F
:10252000A100491C4FF4005202EBC100FFF714F860
:102530000546A100491C4FF4005202EBC10101F510
:102540008070FFF709F800EB052085B2B542D0D1C5
:10255000284670BD86B00124204600F011FF0FE030
:102560000848006860B16846FEF7A2F900200549F6
:102570000860204600F004FF41F2883001F0ACFD15
:10258000EEE700003C00002010E00948007828B980
:1025900008A0FDF791FE01F023F804E009A0FDF783
:1025A0008BFE01F025F8C82001F096FDEDE7000054
:1025B000F7010020BCCCB5E7C6F7B9D8B1D52E0DD0
:1025C0000A000000BCCCB5E7C6F7BFAAC6F42E0DC2
:1025D0000A00000010B5044600BF082C02DD4FF0D1
:1025E000FF3010BD00BF00BFA100491C002202EB5C
:1025F000C100FEF7B1FF00F00F00012802D06FF01C
:102600000400EEE700BF00BFA100491C4FF4407278
:1026100002EBC100FEF7A0FF132802D06FF002000A
:10262000DFE700BFA100491C4FF4807202EBC1003C
:102630000221FFF711F800BFA100491C4FF480727E
:1026400002EBC100FEF788FF0028F5D105E0204627
:10265000FFF7B4F86FF00300C3E7A100491C4FF483
:10266000407202EBC100FEF777FF1428EFD1012082
:10267000B7E700001CB54FF44070FEF779FBFFF799
:10268000A5F94FF4E13001F0B3FA4FF4965001F0A0
:1026900005FB01F03FF900F08DFFFEF727FF07482B
:1026A000012100238022CDE9001005A1074802F096
:1026B000E7FE01F0ADFE00201CBD00000800002078
:1026C00073746172745F7461736B0000093A00087F
:1026D0002DE9F04105460E461C4807681C48006875
:1026E000001D01F039FB50B91948006890F82C1012
:1026F0000120884017490968814316480160681C19
:1027000038B936B112480168091D134801F062FB5F
:102710001AE07C190E4800684460BC4207D20C489D
:102720000168091D0D48006801F03AFB0CE00848FB
:102730000168091D0A48006801F032FB0948006879
:10274000844201D207480460BDE8F081DC0000202B
:10275000C8000020E0000020D0170020D00000209A
:10276000CC000020F800002010B5044601F040FB2A
:1027700024480068401C234908602348006840B989
:10278000214804600846006801280DD100F0EEF9E8
:102790000AE01E48006838B91B480068C06AE16A50
:1027A000884201D81848046019480068401C18493C
:1027B000086008460068606494F82C100120884086
:1027C00014490968084313490860E16A01EB810173
:1027D000114A02EB8100211D01F0FCFA01F04CFBD3
:1027E0000A48006868B108480068C06AE16A88421F
:1027F00007D24FF0805009490860BFF34F8FBFF3F5
:102800006F8F10BDD8000020C8000020E400002019
:10281000F4000020E00000200015002004ED00E09E
:1028200010B501F0E5FA10480068D0B90F4801F082
:10283000A7FA0F4801F0A4FA0C480E4908600C48AA
:102840000D49086000221021052002F0E9FA06492E
:1028500008600846006820B108A10348006801F03C
:10286000FFFB01F009FB10BD0C010020E417002064
:10287000F81700200401002008010020546D725157
:102880000000000070B523E001F018FE1348006856
:1028900008B9012000E00020054602F0ADFFBDB9F7
:1028A00001F0A6FA0D48C068C468201D01F054FA72
:1028B0000B480068401E0A4908600A480068401E2C
:1028C0000849086001F0D8FA204600F060F800BF1F
:1028D000044800680028D7D170BD0000BC17002054
:1028E000D8000020D400002070B504460D46206CAE
:1028F00070B1216CE0680844E0606168E06888427B
:1029000001D32068E0602846226CE168FDF7E2FD13
:1029100070BD2DE9F04104460F4615464FF0000802
:10292000A66B206C40B9206860BB606802F09EFE18
:1029300080460020606025E07DB93946226CA068A1
:10294000FDF7C8FD216CA0680844A060D4E901101F
:10295000884217D32068A06014E03946226CE068F2
:10296000FDF7B8FD216CE068401AE0602168E0687E
:10297000884203D2216C6068401AE060022D01D1C8
:1029800006B1761E701CA0634046BDE8F08110B50C
:102990000446206B01F0A8FA204601F0A5FA10BD0C
:1029A0000146084A126812680AB9012200E00022B2
:1029B0000A600A6822B9034A1268D268106800E007
:1029C000002070470401002030B54FF42053174811
:1029D00000F007042CB1C01D20F00700134C041BAD
:1029E0001B1B0246124C22600024114D6C60D01853
:1029F000083820F007000F4C206000240D4D2D6892
:102A00006C600C4D2D682C601146441A4C60094CCA
:102A100024680C60084D4C682C60084D4C682C6094
:102A20004FF00044064D2C6030BD00000C18002013
:102A3000240100202C01002034010020300100205E
:102A40003801002000BFFFF71DFF0648006801287D
:102A5000F9D94FF0805004490860BFF34F8FBFF39E
:102A60006F8FF0E70015002004ED00E02DE9F04144
:102A700006460D4617469846069C0DB9246000E0B0
:102A80002760E66325640121204602F0E7FA84F816
:102A900050800020A064BDE8F08100002DE9F05FC7
:102AA00082460F4690469B460A9E0C9C4FEA880140
:102AB000A522206BFDF785FDA8F10100216B01EB3C
:102AC000800929F0070909F0070008B9012000E092
:102AD000002028B940F22B321BA120A0FDF7ECFB0F
:102AE000002507E0795D04F134004155785D00B9B7
:102AF00002E06D1C102DF5D300BF002143200155CD
:102B0000202E00D31F26E662E66400202065201DEB
:102B100001F043F904F1180001F03FF92461C6F116
:102B20002000A06164620020606584F858005A4665
:102B30005146484600F012FC20600B9808B10B98F3
:102B40000460BDE8F09F00002E2E5C467265655261
:102B5000544F535C7461736B732E63004572726FD4
:102B6000723A25732C25640D0A00000010B500246C
:102B700007E004EB84010F4A02EB810001F000F949
:102B8000641C202CF5D30C4801F0FAF80B4801F036
:102B9000F7F80B4801F0F4F80A4801F0F1F80A4898
:102BA00001F0EEF804480949086004480849086043
:102BB00010BD000000150020801700209417002091
:102BC000A8170020BC170020D0170020CC00002040
:102BD000D000002010B50146164800E000680368E8
:102BE0008B42FBD30246436813448B4204D14368B3
:102BF0004C682344436001460A464B68134404680A
:102C0000A34211D10C4C03682468A34208D04B683E
:102C10000468646823444B6003681B680B6005E02C
:102C2000054B1B680B6001E003680B60884200D015
:102C3000016010BD240100202C0100202DE9F0418D
:102C400004460D4616461F464FF000086560246195
:102C5000B5420CD8F01BA169884202D34FF001089D
:102C600011E0211D0948006801F09AF80BE0BE420E
:102C700004D2BD4202D34FF0010804E0211D0448F4
:102C8000006801F08DF84046BDE8F08108010020A1
:102C90000401002070B5054601F0AAF8A86B08B938
:102CA000012400E0002401F0E7F8204670BD70B573
:102CB000054601F09DF8A86BE96B884201D101241B
:102CC00000E0002401F0D8F8204670BD2DE9F34162
:102CD0000D460098846C00272CB940F6CE121AA13C
:102CE0001EA0FDF7E9FAA06BE16B884201D201203A
:102CF00000E0002028B940F6CF1213A117A0FDF77D
:102D0000DBFAA06BE16B88421BD294F945602A463E
:102D100069462046FFF7FDFD0746701C60B9606AF2
:102D200008B9012000E0002050B904F1240002F0AD
:102D300009FD28B1012703E0701C40B284F845006A
:102D400000BF3846BDE8FC812E2E5C467265655298
:102D5000544F535C71756575652E63004572726FD3
:102D6000723A25732C25640D0A000000F8B505465B
:102D70000F4613480068C068C468201D00F0ECFFCF
:102D8000E069012818D1A06941192B463A4620462E
:102D9000FFF754FF80B1002003462A460146009009
:102DA000204602F0F3FD06462EB94FF4027205A14B
:102DB0000AA0FDF781FA00BF2046616A8847F8BD86
:102DC000040100202E2E5C4672656552544F535C00
:102DD00074696D6572732E63000000004572726F36
:102DE000723A25732C25640D0A000000F0B587B0F7
:102DF00070E0039800280CDA04AE2EB940F2E72206
:102E00003AA140A0FDF758FAD6E90020B1689047F2
:102E100000BF039800285DDB059C606908B90120AC
:102E200000E0002010B9201D00F096FF02A800F07D
:102E3000C7F8054603980A284AD2DFE800F00905DA
:102E4000072C2E4506082D2F00BF00BF00BF00BF76
:102E50000498A269811803462A462046FFF7EEFE31
:102E6000C0B12046616A8847E069012812D100207C
:102E700000900498A169421800231946204602F0E8
:102E800085FD07462FB940F2213218A11DA0FDF79C
:102E900013FA00BF1DE000BF1BE000BF0498A06153
:102EA000A06908B1012000E0002028B94FF44E725B
:102EB0000EA114A0FDF700FAA06941192B462A467D
:102EC0002046FFF7BBFE04E0204601F00DF800E0CD
:102ED00000BF00BF00231A4603A90E48006801F096
:102EE000D9FF002885D107B0F0BD00002E2E5C462A
:102EF00072656552544F535C74696D6572732E63CD
:102F0000000000004572726F723A25732C25640D23
:102F10000A0000000C010020F8B505460C4601F03F
:102F2000CDFA684600F04CF80646009820BB44B93C
:102F3000B54206D802F060FC31462846FFF716FF7E
:102F40001CE03CB10E480068006808B9012000E0B0
:102F500000200446A91B22460A48006801F096F8A2
:102F600002F04AFC50B94FF0805007490860BFF3A7
:102F70004F8FBFF36F8F01E002F03EFCF8BD000001
:102F8000080100200C01002004ED00E00A49096856
:102F9000096809B9012100E0002121B14FF0FF319A
:102FA000064A116006E004490968C968C868034A0E
:102FB0004168116070470000CC000020F80000203C
:102FC00070B5044602F09CFA054607480068854241
:102FD00004D200F00BF80120206001E00020206006
:102FE00001480560284670BD140100202DE9F84312
:102FF0002DE021480068C06805681F480068C06867
:10300000C468201D00F0A8FE2046616A8847E06978
:1030100001281CD1A0694619AE4207D96660246117
:10302000211D1548006800F0BBFE10E0002003469B
:103030002A4601460090204602F0A8FC07462FB918
:1030400040F292320DA113A0FDF736F900BF0A48F5
:103050000068006808B9012000E000200028C8D0FE
:103060000548D0F800800F480068034908600D4803
:10307000C0F80080BDE8F883040100202E2E5C46D5
:1030800072656552544F535C74696D6572732E633B
:10309000000000004572726F723A25732C25640D92
:1030A0000A000000080100200B480068401C08B915
:1030B000012000E0002020B9F42208A112A0FDF7B1
:1030C000FBF800BF502080F31188BFF34F8FBFF390
:1030D0006F8F00BF00BFFEE7180100202E2E5C4658
:1030E00072656552544F535C706F727461626C65A7
:1030F0005C525644535C41524D5F434D335C706F9C
:1031000072742E63000000004572726F723A25736C
:103110002C25640D0A00000008B500BF6846FFF7C3
:103120003FFC044620460099FFF7F6FEFFF75EFEDF
:10313000F4E770B5044600F05BFE94F945501AE0E0
:10314000A06C38B100212046FFF7C0FD88B101F026
:1031500083F80EE0606A08B9012000E0002038B969
:1031600004F1240002F0EEFA18B101F075F800E065
:1031700003E0681E45B2002DE2DC00BFFF2084F8AA
:10318000450000F079FE00F033FE94F9445010E061
:10319000206908B9012000E0002048B904F11000BE
:1031A00002F0D0FA08B101F057F8681E45B200E00D
:1031B00001E0002DECDC00BFFF2084F8440000F0AB
:1031C0005BFE70BD014621B1012904D0072906D15B
:1031D00003E0002005E0022003E0062001E00420D7
:1031E00000BF00BF704700002DE9F04104464FF0DA
:1031F000000801F063F93E48006808B9FFF7E4FBF6
:103200003C480068204000285FD1A4B1083404F095
:10321000070080B104F00700C0F10800044404F086
:10322000070008B9012000E0002020B9BF2232A128
:103230003BA0FDF741F8002C47D03D480068844290
:1032400043D83C4E3046056801E02E462D6868683C
:10325000A04202D228680028F7D12548006885429C
:1032600033D0306800F10808286830606868001BB7
:10327000102813D92F1907F0070008B9012000E022
:10328000002020B9EC221CA125A0FDF715F86868E4
:10329000001B78606C603846FFF79CFC2449686826
:1032A0000968081A22490860084600682249096826
:1032B000884203D21E4800681F4908600D496868AB
:1032C0000968084368600020286002F095FA08F059
:1032D000070008B9012000E0002028B94FF49672D9
:1032E00005A10FA0FCF7E8FF4046BDE8F081000013
:1032F0002C010020380100202E2E5C46726565529C
:10330000544F535C706F727461626C655C4D656D97
:103310004D616E675C686561705F342E630000000C
:103320004572726F723A25732C25640D0A000000F5
:1033300030010020240100203401002006480068EC
:1033400030B10549096801F15000096D491C01605F
:103350000148006870470000C8000020001F4FF0BF
:1033600080730360001F21F001030360001F034B03
:10337000036014380260203870470000A93000084C
:1033800038B50446012C1AD100241C4800781C4989
:10339000087003204870002088704820C870002002
:1033A00008710820487106211548FEF7ECF90090D5
:1033B0009DF80100124988719DF80000C871002035
:1033C0001049086012E000BF40210F48FDF7BAFF26
:1033D0000028F9D00A480B4A1268815C0A48FEF7B7
:1033E0007EF808480068401C0649086005480068E7
:1033F000064909688842E6DB38BD0000300000203D
:10340000310000204400002000480040400000201F
:103410002DE9F0470446884616460027002500BFE0
:10342000082C02DD681EBDE8F08700BF00BFA100C8
:10343000491C002202EBC100FEF78EF800F00F00DD
:10344000012802D06FF00400EDE700BF00BF16B9FD
:103450006FF00D00E7E700BFA100491C4FF4F052E8
:1034600002EBC100FEF778F84FF6FF7101EA802504
:10347000B54200DA2E4638E02046FEF7FFFF05464B
:10348000A100491C4FF4407202EBC100FEF764F842
:103490000746172F1ED01C2F16D105B126E0204657
:1034A000FFF722F88146A100491C4FF4F85202EBC5
:1034B000C100FEF751F8B9EB802F0BD12046FEF783
:1034C0007DF96FF00600AEE72046FEF777F96FF062
:1034D0000600A8E70120A04014490988084010B15F
:1034E0000DB900209FE705B100E0C5E700BFB54278
:1034F00000DA2E4632464146204601F053F8A1003C
:10350000491C4FF4807202EBC1004021FEF7A4F881
:1035100000BFA100491C4FF4807202EBC100FEF70E
:103520001BF80028F5D130467DE70000540000204C
:1035300000B131B9054A064BDA60064B044A136103
:1035400002E0034AD060116170470000F3460008B2
:1035500060000020F546000800B131B9054A064B6D
:103560005A61064B044A936102E0034A506191613B
:1035700070470000F946000860000020F746000888
:1035800000BF094A128802F40072002AF9D000B183
:1035900031B9064A044BDA61054B034A136202E073
:1035A000014AD06111627047600000202D49000877
:1035B0003149000808B501210820FDF713FC8020DF
:1035C000ADF8000010208DF8030003208DF80200F4
:1035D00069460248FDF7F7FA08BD0000000C0140FB
:1035E00010B580210148FDF782FB10BD000C0140A1
:1035F00010B580210148FDF77CFB10BD000C014097
:103600002DE9F0410446884615460026002700BFF4
:10361000082C02DD701EBDE8F08100BF00BFA100D4
:10362000491C002202EBC100FDF796FF00F00F00DD
:10363000012802D06FF00400EDE700BF00BF15B90C
:103640006FF00D00E7E700BFA100491C4FF4407286
:1036500002EBC100FDF780FF0646172E04D01C2E9A
:1036600002D06FF00600D6E70120A0404249098849
:10367000084040B3A100491C4FF4007202EBC100A6
:10368000FDF76AFF00F01F0606F0100080B1A100F0
:10369000491C4FF4007202EBC1001021FDF7DCFF62
:1036A0000120A040344909888143334801800AE061
:1036B00006F0080028B12046FEF780F86FF00C00F5
:1036C000A9E70020A7E7A100491C4FF4F85202EB3C
:1036D000C100FDF741FF4FF6FF7101EA8027BD42AF
:1036E00000DD3D4623E02046FEF7FEFE0746A10032
:1036F000491C4FF4407202EBC100FDF72DFF064656
:10370000172E07D01C2E05D02046FEF757F86FF075
:10371000060080E70120A04018490988084018B138
:10372000BD4201DD002076E7BD4200DC00E0DAE7C3
:1037300000BF2A464146204600F076FFA100491C02
:103740004FF4807202EBC1002021FDF785FF00BF1E
:10375000A100491C4FF4807202EBC100FDF7FCFE92
:103760000028F5D10120A0400349098808430249F7
:10377000088028464FE70000560000205400002033
:10378000F8B504460E4617461D4600BF082C02DD5C
:103790004FF0FF30F8BD00BF012E06D0022E10D032
:1037A000032E10D0042E0FD10CE0042269464FF4F2
:1037B0007060FDF70BFF009810B96FF00200E9E7A9
:1037C00005E000BF00BF02E06FF00400E2E700BFC9
:1037D00005F0040010B16FF00500DBE705B3012E22
:1037E00002D0022E1AD106E005F0210010B96FF0C8
:1037F0000500CFE713E005F0200028B105F08000B8
:1038000010B96FF00500C5E705F0100028B105F00C
:10381000800010B96FF00500BCE700E000BF00BFFA
:103820002046FDF7CBFF05F0F00242EA0601A200B8
:10383000521C002303EBC200FDF70EFF7FB9304896
:1038400007880088401C2E490880084600884FF6EB
:10385000F071884203D14FF4404029490880391261
:10386000A200521C4FF4806303EBC200FDF7F4FE8C
:10387000F9B2A200521C4FF4806303EBC20202F5BE
:103880008070FDF7E9FEA100491C4FF4807202EB45
:10389000C1000121FDF7E0FE00BFA100491C4FF46B
:1038A000807202EBC100FDF757FE0028F5D1012020
:1038B000A0401449098881431248018005F00100A5
:1038C000A0401049098808430E4908800120A04003
:1038D0000D49098881430C48018000200B4921F8DB
:1038E00014000B49085500BFA100491C4FF4407259
:1038F00002EBC100FDF730FE0028F5D060B249E7C9
:10390000520000205400002056000020E813002040
:103910005800002000B587B001218803FDF742FA66
:1039200001210820FDF75EFA4FF46040ADF8180061
:1039300003208DF81A0018208DF81B0006A93048C6
:10394000FDF741F94FF48040ADF8180048208DF89C
:103950001B0006A92A48FDF736F94FF48050ADF850
:10396000180003208DF81A0010208DF81B0006A9FE
:103970002348FDF728F94FF480512148FDF7B9F9A4
:103980004FF48070ADF8180003208DF81A00102055
:103990008DF81B0006A91A48FDF715F94FF4807140
:1039A0001748FDF7A4F90020ADF804004FF4827029
:1039B000ADF806000020ADF80800ADF80A00ADF83B
:1039C0000C004FF40070ADF80E000820ADF81000A8
:1039D0000020ADF812000720ADF8140001A9094835
:1039E000FDF7B7FA01210748FDF79AFA02210548C9
:1039F000FDF7ACFA01210348FDF7A8FA07B000BDB6
:103A0000000C0140003800401CB5044600F0F0F9FD
:103A1000174802210023CA01CDE9001015A1194859
:103A200001F02EFD1848032100238022CDE900106B
:103A300016A1194801F024FD184804210023802212
:103A4000CDE9001016A1194801F01AFD134805210F
:103A500000234FF48072CDE9001015A1184801F041
:103A60000FFD1848006800F071FB00F005FA1CBD5E
:103A70000C00002074637073657665725F74617307
:103A80006B000000C93A000810000020646874311F
:103A9000315F7461736B0000B11A000818000020D8
:103AA0006A64715F7461736B00000000892500080F
:103AB000696D31323831625F7461736B00000000F0
:103AC00055250008080000204FF4FC70FEF742FC6A
:103AD000FEF718F85CE04FF44270FDF73DFD30B1A1
:103AE000132812D0172814D01C284DD148E029A043
:103AF000FCF7E2FB20234FF4FC7201210020FFF7CA
:103B00003FFE29A0FCF7D8FB3EE00020FEF762FD57
:103B10003AE04FF40270FDF71FFD00F0010038B1EC
:103B200028A0FCF7C9FB01214FF40270FDF794FDBA
:103B30000020FEF7A3FC29490880084600880028D9
:103B40001DDD4FF400612648FCF743FD2348028841
:103B500023490020FFF75CFC012001F00DF8FEF77F
:103B600075FAFEF773FA1F48007840B100201D492E
:103B700008701D4802881D490020FFF741FD03E041
:103B80000020FDF71BFE00BF00BF0A2000F0A4FAD2
:103B9000A1E700005463702053657665722053746A
:103BA000617274210D0A0000736F636B65742030BD
:103BB000206F70656E20737563636573732E0D0AD5
:103BC00000000000736F636B657420303A20636FF0
:103BD0006E6E65637465642E0D0A0000000000209F
:103BE000F80100200400002002000020F809002055
:103BF00010B586B00446012144F20400FDF7F2F846
:103C000001210846FDF7EEF84FF40070ADF81400FE
:103C100003208DF8160018208DF8170005A91D48FF
:103C2000FCF7D1FF4FF48060ADF8140004208DF84C
:103C3000170005A91748FCF7C6FF25208DF80000DE
:103C400003208DF8010000208DF8020001208DF87E
:103C500003006846FDF754F801940020ADF8080011
:103C6000ADF80A00ADF80C00ADF810000C20ADF86E
:103C70000E0001A90848FDF7C1FB012240F22551C1
:103C80000548FDF796FB01210348FDF700FB06B050
:103C900010BD0000000801400038014010B586B09A
:103CA000044601210820FDF79DF801218804FDF755
:103CB00079F82748FDF7F8FA4FF48060ADF8100066
:103CC00003208DF8120018208DF8130004A9214854
:103CD000FCF779FF4FF40060ADF8100004208DF878
:103CE000130004A91B48FCF76EFF00940020ADF8F8
:103CF0000400ADF80600ADF80800ADF80C000C208B
:103D0000ADF80A0069461248FDF778FB27208DF8C8
:103D1000140003208DF815008DF8160001208DF891
:103D2000170005A8FCF7ECFF00F024FC012240F28C
:103D300025510748FDF73DFB012240F2244104488C
:103D4000FDF737FB01210248FDF7A1FA06B010BDCF
:103D500000480040000C014001460A69D1E90130E9
:103D60009860D1E9010358605068884201D18868A1
:103D70005060002008611068401E10601068704795
:103D800000F1080141604FF0FF31816000F108014E
:103D9000C16001610021016070470021016170472D
:103DA00010B502460B685C1C0CB9106907E002F103
:103DB000080000E04068446824689C42FAD94468DE
:103DC0004C604C68A160886041600A611468641CA2
:103DD000146010BD42684A6093688B6093685960B4
:103DE0009160086103685B1C0360704770470000C6
:103DF00010B500BF502080F31188BFF34F8FBFF381
:103E00006F8F00BF0B480068401C0A4908600846D5
:103E1000006801280DD108480068C0B208B9012027
:103E200000E0002028B94FF4BD7204A10EA0FCF7F9
:103E300043FA10BD1801002004ED00E02E2E5C4670
:103E400072656552544F535C706F727461626C6539
:103E50005C525644535C41524D5F434D335C706F2E
:103E600072742E63000000004572726F723A2573FF
:103E70002C25640D0A00000010B50B48006828B915
:103E800040F2811209A114A0FCF716FA0648006856
:103E9000401E054908600846006820B9002080F3EC
:103EA000118800BF00BF10BD180100202E2E5C46F7
:103EB00072656552544F535C706F727461626C65C9
:103EC0005C525644535C41524D5F434D335C706FBE
:103ED00072742E63000000004572726F723A25738F
:103EE0002C25640D0A00000070B506463546002EEC
:103EF00035D0083D2C461A4960680968084008B169
:103F0000012000E0002028B94FF4A07215A11FA0E5
:103F1000FCF7D2F9206808B9012000E0002028B998
:103F200040F241120FA119A0FCF7C6F90C496068D4
:103F30000968084098B1206888B90949606809682B
:103F40008843606000F0BAFA144960680968084460
:103F5000124908602046FEF73DFE01F04DFC70BDA1
:103F6000380100202E2E5C4672656552544F535C1A
:103F7000706F727461626C655C4D656D4D616E67EA
:103F80005C686561705F342E630000004572726F7B
:103F9000723A25732C25640D0A00000030010020C0
:103FA000064800684FF47A71B0FBF1F0401E4FF004
:103FB000E021486107200861704700001C000020D4
:103FC00070B5FCF753F90546102D11D305F1E0202B
:103FD00090F8F04310480078844201DB012000E0B3
:103FE000002028B94FF42A720CA117A0FCF764F93D
:103FF0001948006800F4E06018490968884201D84F
:10400000012000E0002028B94FF42E7203A10EA079
:10401000FCF752F970BD00001C0100202E2E5C46FA
:1040200072656552544F535C706F727461626C6557
:104030005C525644535C41524D5F434D335C706F4C
:1040400072742E63000000004572726F723A25731D
:104050002C25640D0A0000000CED00E0200100207A
:10406000024600200BE0084B53F8303033B9064BC2
:1040700043F8301003EBC0035A6002E0401C0828EC
:10408000F1D300BF70470000C01400202DE9F041BB
:1040900005460E4617462C46FFF7AAFE94F9440043
:1040A000401C10B9002084F8440094F94500401CDD
:1040B00010B9002084F84500FFF7DEFEA06B28B998
:1040C0003A46314604F1240000F0F6F82046FFF7A6
:1040D00030F8BDE8F081000070B504460025ACB1B1
:1040E0000F48006808B9012000E0002028B940F21C
:1040F000CF420CA110A0FCF7DFF800F0DFF900219F
:104100002046FEF7E5FA01F077FB05463DB94FF092
:1041100080500D490860BFF34F8FBFF36F8F70BDA4
:10412000000100202E2E5C4672656552544F535C90
:104130007461736B732E63004572726F723A2573EC
:104140002C25640D0A00000004ED00E070B5054662
:10415000FFF74EFE15B92D48006800E028460446DA
:10416000201DFFF7F9FD78B9E06A00EB80002849CF
:1041700051F8200040B994F82C10012088402549BE
:104180000968814323480160A06A18B104F118004E
:10419000FFF7E2FD20480068401C1F4908601B48EB
:1041A0000068844209D1211D1C48FFF713FE1C48FA
:1041B0000068401C1A49086009E01A480068401E5F
:1041C000184908602046FEF7E2FBFEF7DFFEFFF726
:1041D00053FE15480068C0B10C480068844214D1F1
:1041E0001248006808B9012000E0002028B940F218
:1041F00065420FA113A0FCF75FF84FF080501549FE
:104200000860BFF34F8FBFF36F8F70BDC8000020F1
:1042100000150020E0000020F4000020BC17002062
:10422000D4000020D8000020E4000020000100207D
:104230002E2E5C4672656552544F535C7461736BED
:10424000732E63004572726F723A25732C25640DCC
:104250000A00000004ED00E00120014908607047F9
:10426000EC00002070B504460D462CB940F606322D
:1042700007A10CA0FCF720F80E4801681831204671
:10428000FFF78EFD01212846FEF722FA70BD0000DF
:104290002E2E5C4672656552544F535C7461736B8D
:1042A000732E63004572726F723A25732C25640D6C
:1042B0000A000000C800002070B505460E461446EE
:1042C0002DB940F6313209A10DA0FBF7F5FF1048DA
:1042D000016818312846FFF77DFD0CB14FF0FF361D
:1042E00021463046FEF7F4F970BD00002E2E5C46E4
:1042F00072656552544F535C7461736B732E630027
:104300004572726F723A25732C25640D0A00000005
:10431000C800002070B505462C46002D4BD026491C
:10432000E06A0968C96A884245D2A06900F0004085
:1043300028B921480068C06AC0F12000A061E16A84
:1043400001EB81011D4A02EB81016069884201D1C4
:10435000012000E0002050B3201DFFF7FDFC78B9DC
:10436000E06A00EB8000154951F8200040B994F84C
:104370002C100120884012490968814310480160CF
:104380000D480068C06AE06294F82C100120884053
:104390000B49096808430A490860E16A01EB810199
:1043A000064A02EB8100211DFFF714FD03E00248DD
:1043B0000068C06AE06270BDC800002000150020DF
:1043C000E000002010B504462CB940F6C13205A12A
:1043D00009A0FBF771FF0C48006820600B480068DB
:1043E000606010BD2E2E5C4672656552544F535C62
:1043F0007461736B732E63004572726F723A25732A
:104400002C25640D0A000000F0000020DC000020D4
:104410001CB51A4800210B468222CDE9001018A1D4
:10442000194801F02DF80446012C02D101F074FA6C
:104430000446012C15D100BF502080F31188BFF332
:104440004F8FBFF36F8F00BF4FF0FF300F490860F1
:1044500001200F49086000200E49086000F076FC3A
:104460000BE0601C08B1012000E0002028B940F2F8
:10447000847209A10DA0FBF71FFF1CBDFC000020EA
:1044800049444C4500000000452A0008F80000207F
:10449000E4000020DC0000202E2E5C467265655290
:1044A000544F535C7461736B732E63004572726F6B
:1044B000723A25732C25640D0A000000024800683A
:1044C000401C0149086070470001002010B51B48DE
:1044D000006818B101201A4908602DE00020184931
:1044E000086018480068B0FA80F0C0F11F0404EBBF
:1044F0008400154951F8200008B1012000E0002097
:1045000028B940F6F62211A115A0FBF7D5FE04EB61
:1045100084010D4A02EB810041684968416000F165
:10452000080142688A4202D1416849684160416895
:10453000C9680F4A116000BF10BD000000010020D3
:10454000EC000020E0000020001500202E2E5C462C
:1045500072656552544F535C7461736B732E6300C4
:104560004572726F723A25732C25640D0A000000A3
:10457000C800002000200949086009E0002008491F
:10458000064A1268885405480068401C03490860C0
:10459000024800682828F1DB704700004000002036
:1045A000881300202DE9F04704460F4616460025E3
:1045B000A8460EB9BDE8F087A100491C4FF420526F
:1045C00002EBC10101F58070FCF7C6FF8146A10036
:1045D000491C4FF4205202EBC100FCF7BDFF09EB70
:1045E000002085B22902A000C01C01EBC0083246A1
:1045F00039464046FCF7EAFFA81985B22912A20005
:10460000521C4FF4205303EBC200FDF725F8E9B22A
:10461000A200521C4FF4205303EBC20202F580703B
:10462000FDF71AF800BFC5E72DE9F04704460F462D
:1046300016460025A8460EB9BDE8F087A100491C22
:104640004FF4105202EBC10101F58070FCF784FFBA
:104650008146A100491C4FF4105202EBC100FCF747
:104660007BFF09EB002085B22902A000801C01EB32
:10467000C008324639464046FDF728F8A81985B2E9
:104680002912A200521C4FF4105303EBC200FCF796
:10469000E3FFE9B2A200521C4FF4105303EBC20235
:1046A00002F58070FCF7D8FF00BFC5E70146087827
:1046B00070470170704770B50546ECB22E1204F0D9
:1046C000F0014FF4A850FCF7C7FF00240EE00120D2
:1046D000A040304040B1A100491C4FF4007202EBF1
:1046E000C1001F21FCF7B8FF601CC4B2082CEEDB30
:1046F00070BD704770477047704770B50026002442
:1047000000254FF4A850FCF727FF00F0F0064FF407
:10471000B850FCF721FF0446254606EB052085B27C
:10472000284670BD70B50026002400254FF4B05017
:10473000FCF712FF06464FF4C050FCF70DFF04468D
:10474000254606EB052085B2284670BD10B5044607
:10475000062221464FF41060FCF738FF042204F1D2
:104760000E019001FCF732FF042204F10A014FF41C
:10477000A060FCF72BFF0422A11D4FF47060FCF732
:1047800025FF07480078A07405484178E1748178D6
:104790002175C178617503480078A07510BD0000CF
:1047A0008C0000209000002010B50020FCF7D4FE03
:1047B00010BD70B504464FF4D850FCF7CDFE207004
:1047C0004FF4D050FCF7C8FE05464FF4C850FCF734
:1047D000C3FE05EB0020608070BD2DE9F041054669
:1047E0000E46002700F0A5F8F5B100BF00240AE04E
:1047F000285D384447B2102F03DD4FF0FF30BDE88D
:10480000F081601C44B2082CF2DB00240AE0295D30
:10481000A200521C4FF4F85303EBC200FCF71CFF3C
:10482000601C44B2082CF2DBEEB10027002409E042
:10483000305D384447B2102F02DD4FF0FF30DEE725
:10484000601C44B2082CF3DB00240AE0315DA200B6
:10485000521C4FF4F05303EBC200FCF7FDFE601C4A
:1048600044B2082CF2DB0020C9E770B50446E5B27B
:10487000261229464FF4B050FCF7EEFE31464FF4B5
:10488000C050FCF7E9FE70BD10B504460622214673
:104890004FF41060FCF71AFF042204F10E0190019E
:1048A000FCF714FF042204F10A014FF4A060FCF7A6
:1048B0000DFF0422A11D4FF47060FCF707FFA07CE0
:1048C00005490870E07C4870207D8870607DC87064
:1048D000A07D0249087010BD8C00002090000020CF
:1048E00070B50446002524F03A0008B1681E70BD7A
:1048F0000020FCF731FE0546254329460020FCF741
:10490000ABFE0020F3E710B5044621784FF4D850F1
:10491000FCF7A2FE608801124FF4C850FCF79CFE21
:10492000A1784FF4D050FCF797FE10BD00207047DF
:10493000704700B585B0062269464FF41060FCF759
:1049400045FE042204A99001FCF740FE042203A9BD
:104950004FF4A060FCF73AFE042202A94FF4706005
:10496000FCF734FE80210020FCF776FE0020FCF7E7
:10497000F3FD062269464FF41060FCF7A7FE0422FF
:1049800004A99001FCF7A2FE042203A94FF4A06041
:10499000FCF79CFE042202A94FF47060FCF796FE1F
:1049A00005B000BD70B5044600254FF43850FCF743
:1049B000D3FD0546C5F38010207005F0380020288F
:1049C00002D0382803D100BF0120607002E000202F
:1049D000607000BF00BF05F03800102805D018280F
:1049E00002D0202804D100BF00BF0120A07002E047
:1049F0000020A07000BF00BF05F03800082805D0D7
:104A0000182802D0202804D100BF00BF0120E07088
:104A100002E00020E07000BF00BF70BD10B50024B0
:104A20004FF43850FCF798FD00F0010000B101246C
:104A3000204610BD10B500244FF43850FCF78CFD13
:104A400000F03800302801D1012400E00024204685
:104A500010BD10B54FF43850FCF77EFD044624F02D
:104A6000800421464FF43850FCF7F6FD4FF43850DF
:104A7000FCF772FD044644F0800421464FF43850A0
:104A8000FCF7EAFD10BD70B5054600242878012822
:104A900002D144F0400401E024F040046878012889
:104AA00002D144F0380412E0E878012808D1A8784F
:104AB000012802D144F0180409E044F0080406E09B
:104AC000A878012802D144F0100400E000BF21467C
:104AD0004FF43850FCF7C0FDFFF7BBFF70BD70B559
:104AE000054600244FF43850FCF736FD044604F028
:104AF000400010B94FF0FF3070BD24F03804012D94
:104B000002D144F0300401E044F0380421464FF46F
:104B10003850FCF7A1FDFFF79CFF4FF43850FCF72D
:104B20001BFD0446012D04D104F0300030B10020FB
:104B3000E2E704F0380008B10020DDE74FF0FF3075
:104B4000DAE7000001460020054A127832B1054A32
:104B500012780A700022024B1A7001207047000080
:104B6000F6010020F5010020002002490870012014
:104B700070470000F601002001460120024A107033
:104B80000248017001207047F6010020F501002065
:104B90000246054810600548008808800020034B45
:104BA0001880012070470000F8010020000000205C
:104BB00070B505460024A100491C4FF4407202EB79
:104BC000C100FCF7C9FC58B90FA0FBF775FB002327
:104BD0002A4601212046FEF7D3FD10A0FBF76CFB0F
:104BE000A100491C4FF4407202EBC100FCF7B4FC79
:104BF000132807D12046FDF7EDFC0FA0FBF75CFB67
:104C0000012070BD0020FCE7546370205365766579
:104C100072205374617274210D0A0000736F636B0C
:104C200065742030206F70656E20737563636573E3
:104C3000732E0D0A00000000736F636B65742030E3
:104C4000206C697374656E696E67202E0D0A000012
:104C500070B505460C46224629460548FBF73AFC46
:104C6000044804800120044908700846007870BD9B
:104C7000F80900200200002004000020F0B50346DF
:104C80000C461546E208A4EBC20087B20120A840FA
:104C9000401E86B2995C501C185C41EA00213941E3
:104CA0003140C8B2F0BD00002DE9FF5F05460E4659
:104CB0009046DDF80CB0B8F1080F00DC04E03722B4
:104CC00013A11EA0FBF7C6FBF408A6EBC4001FFA55
:104CD00080FA0BFA0AF01FFA80FB012000FA08F0B4
:104CE000401E1FFA80F9A6EBC40009FA00F01FFA73
:104CF00080F92F5D601C285C47EA002727EA09003D
:104D000040EA0B072F553912601C2954BDE8FF9F5C
:104D10002E2E5C465245454D4F444255535C6D6FB7
:104D2000646275735C66756E6374696F6E735C6DD7
:104D3000627574696C732E630000000075634E42E7
:104D4000697473203C3D2038000000001CB52248E7
:104D5000014609780191FF21024611700146097848
:104D600000919DF8001001F050011C4A11700721BC
:104D70001B4A116009E01A490968491E184A116066
:104D80009DF800104906090E00919DF8001001F0F1
:104D900080018029EFD0124909680902104A116088
:104DA0001146098801F4E06111600B4A0199117004
:104DB0000C48006840F470000A4908600846006822
:104DC00040F070400860FFF7EBF8002006490860EB
:104DD000FBF716FA00201CBD00E400E01C010020D7
:104DE0002001002020ED00E01801002010B500BFD8
:104DF000502080F31188BFF34F8FBFF36F8F00BF38
:104E000000F084FB18B14FF080500449086000BFE7
:104E1000002080F3118800BF10BD000004ED00E009
:104E20002DE9F84305460E4690460DB1012000E0FD
:104E3000002028B94FF4C4720DA112A0FBF73CFA70
:104E40000EB9002701E005FB06F707F15400FEF755
:104E5000CBF9044644B104F1540943464A4631466D
:104E600028460094FDF702FE2046BDE8F8830000C6
:104E70002E2E5C4672656552544F535C7175657594
:104E8000652E63004572726F723A25732C25640D8E
:104E90000A0000002DE9FF4782B005460E461F4676
:104EA0004FF0000A2C462CB940F2DC4261A166A00A
:104EB000FBF702FA0EB9206C08B9012000E00020CF
:104EC00028B940F2DD425BA15FA0FBF7F5F900F0E5
:104ED00007FB08B9049808B9012000E0002028B9B0
:104EE0004FF49C6253A158A0FBF7E6F900BFFEF710
:104EF0007FFFD4F83890B9F1000F3DD0D4F80C8082
:104F000031462046FDF7F0FCDFB9A9F10100A063AE
:104F1000206810B9FEF712FA6060206908B9012014
:104F200000E0002010BB04F1100000F00BFCE8B121
:104F30004FF0805048490860BFF34F8FBFF36F8F29
:104F400014E0C4F80C80606A08B9012000E0002079
:104F500060B904F1240000F0F5FB38B14FF0805047
:104F60003D490860BFF34F8FBFF36F8FFEF784FF9B
:104F7000012006B0BDE8F087049818B9FEF77CFF61
:104F80000020F6E7BAF1000F04D16846FFF71AFADD
:104F90004FF0010AFEF770FFFFF790FAFEF728FFC7
:104FA00094F94400401C10B9002084F8440094F99E
:104FB0004500401C10B9002084F84500FEF75CFF56
:104FC00004A9684600F00CFA40BB2046FDF762FEDB
:104FD000F0B1206830B9FEF70BFF6068FFF79AF96F
:104FE000FEF74AFF04F124000499FFF73BF920463D
:104FF000FEF79FF800F000FC00287FF478AF4FF038
:10500000805015490860BFF34F8FBFF36F8F6EE775
:105010002046FEF78EF800F0EFFB68E72046FEF72B
:1050200088F800F0E9FB2046FDF734FE0028EED0BA
:1050300000209EE72E2E5C4672656552544F535CED
:1050400071756575652E63004572726F723A2573CE
:105050002C25640D0A00000004ED00E070B5054643
:105060000E462C462CB940F21B121EA122A0FBF7C3
:1050700023F9FEF7BDFED4E90F12206801FB020000
:1050800060600020A0632068A060E06B401E226C7E
:10509000216800FB0210E060FF2084F8440084F8DF
:1050A00045009EB9206908B9012000E00020A8B998
:1050B00004F1100000F046FB80B14FF0805012491F
:1050C0000860BFF34F8FBFF36F8F07E004F110004C
:1050D000FEF756FE04F12400FEF752FEFEF7CCFE6A
:1050E000012070BD2E2E5C4672656552544F535C94
:1050F00071756575652E63004572726F723A25731E
:105100002C25640D0A00000004ED00E02DE9FF43AA
:1051100083B0064688461D464FF0000934462CB938
:1051200040F2D92260A165A0FBF7C6F8B8F1000FE4
:1051300001D1206C08B9012000E0002028B940F21C
:10514000DA2259A15DA0FBF7B7F8022D02D1E06B7E
:10515000012801D1012000E0002028B940F2DB2223
:1051600051A156A0FBF7A8F800F0BAF908B90598C4
:1051700008B9012000E0002028B940F2DE224AA14F
:105180004EA0FBF799F800BFFEF732FEA06BE16B73
:10519000884201D3022D38D12A4641462046FDF7E8
:1051A000B8FB0746A06C68B129462046FDF78EFD86
:1051B00028B34FF0805045490860BFF34F8FBFF3CD
:1051C0006F8F1CE0606A08B9012000E0002068B918
:1051D00004F1240000F0B6FA88B14FF080503B494A
:1051E0000860BFF34F8FBFF36F8F08E03FB14FF000
:1051F000805036490860BFF34F8FBFF36F8FFEF7C3
:105200003BFE012007B0BDE8F083059818B9FEF712
:1052100033FE0020F6E7B9F1000F04D101A8FFF733
:10522000D1F84FF00109FEF727FEFFF747F9FEF727
:10523000DFFD94F94400401C10B9002084F84400BC
:1052400094F94500401C10B9002084F84500FEF791
:1052500013FE05A901A800F0C3F8F0B92046FDF738
:1052600026FDA0B104F110000599FEF7FBFF2046D2
:10527000FDF75FFF00F0C0FA002885D14FF08050A5
:1052800012490860BFF34F8FBFF36F8F7CE7204652
:10529000FDF74FFF00F0B0FA76E72046FDF749FF33
:1052A00000F0AAFA0020ADE72E2E5C46726565522A
:1052B000544F535C71756575652E63004572726F4E
:1052C000723A25732C25640D0A00000004ED00E0FD
:1052D0002DE9F05F80468A4615461E4644462CB9A5
:1052E00040F29F3235A13AA0FAF7E6FFBAF1000F7B
:1052F00001D1206C08B9012000E0002028B94FF44A
:1053000068722EA132A0FAF7D7FF022E02D1E06B0D
:10531000012801D1012000E0002028B940F2A1328B
:1053200026A12BA0FAF7C8FFFEF74AFE00BF5021C6
:10533000EFF3118081F31188BFF34F8FBFF36F8FAD
:1053400000BF0746A06BE16B884201D3022E2BD130
:1053500094F945B0324651462046FDF7DAFA0BF192
:105360000100C8B9A06C40B131462046FDF7AEFC43
:10537000B8B1B5B10120286013E0606A08B9012016
:1053800000E0002068B904F1240000F0DBF940B12E
:105390003DB10120286004E00BF1010040B284F827
:1053A00045004FF0010901E04FF0000900BF87F30D
:1053B000118800BF4846BDE8F09F00002E2E5C46D5
:1053C00072656552544F535C71756575652E630047
:1053D0004572726F723A25732C25640D0A00000025
:1053E0002DE9F04104460D462CB940F6CB3219A107
:1053F0001DA0FAF761FF2DB940F6CC3215A11AA015
:10540000FAF75AFFFEF7F4FC1B4807682868401CAF
:1054100008B9002619E0194920680968884204D0B3
:105420006068B84201D801260FE06068381A296820
:10543000884209D228686168791A401A2860204693
:10544000FEF7C0FF002600E00126FEF715FD3046FE
:10545000BDE8F0812E2E5C4672656552544F535C58
:105460007461736B732E63004572726F723A2573A9
:105470002C25640D0A000000DC000020F000002054
:105480002DE9FF4F85B0804689461746DDE912AB0E
:10549000B800FDF7A9FE064656B15C20FDF7A4FE54
:1054A00004460CB1266304E03046FEF71DFD00E023
:1054B00000247CB10020CDE900ABCDE902403A46A2
:1054C00049464046089BFDF7E9FA2046FDF74CF9AE
:1054D000012501E04FF0FF35284609B0BDE8F08F07
:1054E0000549096809B9012005E00449096809B9B5
:1054F000022000E000207047E400002000010020AE
:105500000149086870470000DC0000202DE9F041E7
:105510004FF0000841480068002872D140480068F8
:10552000451C3F480560EDB93E480068006808B971
:10553000012000E0002028B940F6D9123AA13FA08E
:10554000FAF7BAFE374807684048006835490860EE
:105550003E4807603E480068401C3D490860FDF732
:1055600015FD00BF3B48006885423CD300BF2D4875
:105570000068006808B9012000E0002020B14FF069
:10558000FF30344908602DE026480068C068C468D0
:105590006668B54202D22F48066023E0201DFEF760
:1055A000DBFBA06A18B104F11800FEF7D5FB94F8F4
:1055B0002C100120884028490968084326490860C2
:1055C000E16A01EB8101254A02EB8100211DFEF712
:1055D00001FC2349E06A0968C96A8842C7D34FF0D1
:1055E0000108C4E700BF1E480068C06A00EB8000E5
:1055F0001A4951F82000012801D94FF0010805E0AF
:10560000FFE718480068401C164908601648006803
:1056100008B14FF001084046BDE8F08100010020CC
:10562000DC000020CC0000202E2E5C467265655206
:10563000544F535C7461736B732E63004572726FC9
:10564000723A25732C25640D0A000000D00000205A
:10565000F0000020F8000020E000002000150020ED
:10566000C8000020E8000020EC00002070B50546CE
:105670002C460026002D4BD026480068844201D1DC
:10568000012000E0002028B940F6C76222A127A02F
:10569000FAF712FE206D28B940F6C9621EA123A0B8
:1056A000FAF70AFE206D401E2065E16CE06A884230
:1056B0002ED0206D60BB201DFEF74EFB78B9E06A4E
:1056C00000EB80001D4951F8200040B994F82C10DF
:1056D000012088401A490968814319480160E06C3B
:1056E000E062E06AC0F12000A06194F82C10012073
:1056F000884013490968084311490860E16A01EBD1
:1057000081010E4A02EB8100211DFEF763FB012699
:10571000304670BDC80000202E2E5C467265655272
:10572000544F535C7461736B732E63004572726FD8
:10573000723A25732C25640D0A0000000015002024
:10574000E000002070B50646F068C4682CB940F649
:1057500061321AA11EA0FAF7AFFD04F11800FEF79E
:10576000FBFA1F480068A8B9201DFEF7F5FA94F867
:105770002C10012088401B4909680843194908601A
:10578000E16A01EB8101184A02EB8100211DFEF75D
:1057900021FB04E004F118011448FEF71BFB144937
:1057A000E06A0968C96A884204D9012501201149C3
:1057B000086000E00025284670BD00002E2E5C46E3
:1057C00072656552544F535C7461736B732E630042
:1057D0004572726F723A25732C25640D0A00000021
:1057E00000010020E000002000150020A817002084
:1057F000C8000020EC00002070B5002400263448CA
:10580000006828B94FF4FD6232A137A0FAF754FDC1
:10581000FEF7EEFA2E480068401E2D490860084643
:10582000006800284FD13448006800284BD024E09D
:105830003248C068C46804F11800FEF78DFA201DD4
:10584000FEF78AFA94F82C10012088402C49096848
:1058500008432B490860E16A01EB8101294A02EB08
:105860008100211DFEF7B6FA2749E06A0968C96A76
:10587000884202D30120254908602048006808B901
:10588000012000E000200028D2D00CB1FDF77EFB03
:105890001F48056865B100BFFFF738FE10B1012051
:1058A0001A4908606D1E002DF6D1002018490860C5
:1058B0001648006838B10126300716490860BFF362
:1058C0004F8FBFF36F8FFEF7D7FA304670BD0000E1
:1058D000000100202E2E5C4672656552544F535CC9
:1058E0007461736B732E63004572726F723A257325
:1058F0002C25640D0A000000D8000020A817002005
:10590000E000002000150020C8000020EC0000206E
:10591000E800002004ED00E01CB50024FCF780FF47
:105920000B48006858B10B481F2100234FF48272C6
:10593000CDE9001008A10A48FFF7A2FD04462CB9E2
:1059400040F2331207A10DA0FAF7B6FC20461CBDA9
:105950000C01002010010020546D7220537663006A
:10596000193100082E2E5C4672656552544F535C07
:1059700074696D6572732E63000000004572726F6A
:10598000723A25732C25640D0A0000002DE9FF47AB
:1059900004460D4616461F46DDF830804FF00009DC
:1059A0002CB94FF4D37217A11CA0FAF785FC1F483D
:1059B000006810B3009501960294062D15DAFFF7E2
:1059C0008FFD022808D10023424669461748006827
:1059D000FFF79CFB814610E000231A4669461348F6
:1059E0000068FFF793FB814607E000233A466946CB
:1059F0000E480068FFF76CFC8146484604B0BDE8DD
:105A0000F08700002E2E5C4672656552544F535C41
:105A100074696D6572732E63000000004572726FC9
:105A2000723A25732C25640D0A0000000C01002039
:105A30000202020202020202020202020202020246
:105A4000605A000800000020F8010000280100084A
:105A5000F85A0008F8010020E8440000840100081A
:105A6000011D84A24A04F00A010203040607080982
:105A700001021208C2C050080102573535303013F8
:105A8000F3461B08F5041AF9041AF7041AAD041AB0
:105A9000B304D1100E788368885673C0A80168FFDC
:105AA000FFFF19082A0104E202298E69920C1102F3
:105AB00004068501401AAA010126D99B011B321157
:105AC00013751E33080413131D33080313871C3387
:105AD000081013DF1F3308061A0D0832171A9F200B
